:04000000020049327F
:01000B0032C2
:0100130032BA
:01001B0032B2
:0300230002021EB8
:01002B0032A2
:01003300329A
:03003B000200A51B
:0300430002032491
:0300A20002004613
:030046000205C2EE
:2000A500C020C0E0C0F0C082C083C007C006C005C004C003C002C001C000C0D075D0009005
:2000C500004DE0FEA3E0FF8EEA8FFA900090E0FCA3E0FD90007BECF0EDA3F0E4A3F0A3F080
:2000E50090360075F06E7401C007C006120692AA82AB83D006D00790004DEA2EF0EB3FA3FD
:20010500F030D813900092E0FEA3E0FF90009274012EF0E43FA3F0900092E0FEA3E0FF90D0
:20012500004FE0FCA3E0FDC3EE9CEF9D40121201E8900092E4F0A3F090009404F0E4A3F0D1
:20014500C2D8D0D0D000D001D002D003D004D005D006D007D083D082D0F0D0E0D020327518
:20016500D80075D90875E90075F90075DA4D900090E0FEA3E0FF90007BEEF0EFA3F0E4A372
:20018500F0A3F090360075F06E7401120692AC82AD838CEA8DFAEC2CFCED33FD90004DECCA
:2001A500F0EDA3F0D2AF2275DA4D900090E0FEA3E0FF90007BEEF0EFA3F0E4A3F0A3F09006
:2001C500360075F06E7401120692AC82AD838CEA8DFAEC2CFCED33FD90004DECF0EDA3F02D
:2001E500D2DE2275DA00900090E0FEA3E0FF90007BEEF0EFA3F0E4A3F0A3F090360075F0B9
:200205006E7401120692AC82AD8390004DECF0EDA3F08CEA8DFAC2DE22C0E0C082C083C011
:2002250007C006C0D075D0001099028005900001E4F01098028020900002E0FF04FE900035
:2002450002F0EF2404F582E43400F583E599F053060F900002EEF0D0D0D006D007D083D0D3
:2002650082D0E032759850758900758BCC758DFFD28E438E40900001E4F0900002F0900005
:2002850003F022900003E0FF900002E0FEEFB5060122EF04FE900003F0EF2404F582E4347B
:2002A50000F583E0FF53060F900003EEF08F8222E582900051F0900001E070FA90000174BE
:2002C50001F0900051E0F59922AFF0AE83E582900052F0EEA3F0EFA3F0900052E0FDA3E069
:2002E500FEA3E0FF8D828E838FF0120842FC60230DBD00010E900052EDF0EEA3F0EFA3F064
:200305008C82C007C006C0051202B5D005D006D00780D1900052EDF0EEA3F0EFA3F022C038
:20032500E0C082C083C007C006C0D075D000E59A30E108539AFD900014E4F0E59A30E02345
:20034500539AFE900015E0FF04FE900015F0EF2417F582E43400F583E59BF053060F9000F9
:2003650015EEF0D0D0D006D007D083D082D0E032759A1075D7CC75D6FF438E14900014E4C3
:20038500F0900015F0900016F022900016E0FF900015E0FEEFB50602801EEF04FE90001632
:2003A500F0EF2417F582E43400F583E0FF53060F900016EEF08F822275820022E582900009
:2003C50055F0900014E070FA9000147401F0900055E0F59B22AFF0AE83E582900056F0EE6A
:2003E500A3F0EFA3F0900056E0FDA3E0FEA3E0FF8D828E838FF0120842FC60230DBD0001D8
:200405000E900056EDF0EEA3F0EFA3F08C82C007C006C0051203C1D005D006D00780D1906A
:200425000056EDF0EEA3F0EFA3F022AF83E582900059F0EFA3F0900059E0FEA3E0FF8EC4D0
:200445008FC375C65A75C6A52275C70075C50075C60075C38075C40022AF83E58290005B66
:20046500F0EFA3F0C2AF75C78175C50390005BE0FEA3E0FF8E828F831204300002044EAFE4
:2004850083E58290005DF0EFA3F075C78175C50190005DE0FEA3E0FF8E828F831204300061
:2004A50090005FE5C2F012044E90005FE0F58222AF83E582900061F0EFA3F075C78175C5F2
:2004C50002900060E0F5C2900061E0FEA3E0FF8E828F831204300002044E43D12075D340C5
:2004E50075D2A243D18022E582900074F0E0FF2463F582E43400F583E0FE900073E0FD8D45
:20050500F005F07401800225E0D5F0FBFD5206EF246BF582E43400F583E0FFED5207EEB593
:20052500070474018001E4FDBD010475821022ED7004758211228E058F04C3EC9D50047523
:20054500821222C3EE9F50037582132290006BE0900063F090006CE0900064F090006DE0B6
:20056500900065F090006EE0900066F090006FE0900067F0900070E0900068F0900071E05E
:20058500900069F0900072E090006AF090006BE580F090006CE590F090006DE5A0F09000EE
:2005A5006EE5B0F090006FE5C0F0900070E5C8F0900071E5E8F0900072E5F8F02275A2301C
:1505C5001201641202691204DFD2AFE5EF30E2FB12055180F6F8
:0608620010270000000059
:2005DA00AF83E582900075F0EFA3F0900075E0FEA3E0C454F0CEC4CE6ECE54F0CE6EC403A0
:2005FA00CEC40354076ECE5407CE6ECEFF7C007D00C3EC9EED9F50070CBC00F50D80F222CA
:20061A00AF83E582900077F0EFA3F0900077E0FEA3E0FF8E048F051EBEFF011F900077EE31
:20063A00F0EFA3F0EC4D60147C007D00C3EC94E0ED940350DE0CBC00F30D80F0900077EE86
:20065A00F0EFA3F022AF83E582900079F0EFA3F0900079E0FEA3E0FF7C007D00C3EC9EED3C
:18067A009F50147A657B011ABAFF011BEA4B70F70CBC00E80D80E5223B
:20069200AF82AE83ADF0FC90007FEFF0EEA3F0EDA3F0ECA3F090007FE0FCA3E0FDA3E0FEF3
:2006B200A3E0FF30E70FC3E49CF8E49DF9E49EFAE49FFB80088C008D018E028F0390007B02
:2006D200E0FCA3E0FDA3E0FEA3E0FF33E433F5086013C3E49CF509E49DF50AE49EF50BE4C8
:2006F2009FF50C80088C098D0A8E0B8F0C900083E509F0E50AA3F0E50BA3F0E50CA3F0885E
:200712008289838AF0EB12074EAC82AD83AEF0FF90007FE0A3E0A3E0A3E033E433650860E3
:1C07320013C3E49CF8E49DF9E49EFAE49F888289838AF0228C828D838EF0EF2285
:20074E00AF82AE83ADF0FC900087EFF0EEA3F0EDA3F0ECA3F090008BE4F0A3F0A3F0A3F072
:20076E00900083E0FCA3E0FDA3E0FEA3E0FF7B20C003900087E0F8A3E0F9A3E0FAA3E0FB35
:20078E0090008F235401F0E828F8E933F9EA33FAEB33FB900087E8F0E9A3F0EAA3F0EBA301
:2007AE00F090008BE0F8A3E0F9A3E0FAA3E0FBE828F8E933F9EA33FAEB33FB90008BE8F091
:2007CE00E9A3F0EAA3F0EBA3F0D00390008FE0600890008BE043E001F090008BE0F50DA3AB
:2007EE00E0F50EA3E0F50FA3E0F510C3E50D9CE50E9DE50F9EE5109F401F90008BE50DC3C3
:20080E009CF0E50E9DA3F0E50F9EA3F0E5109FA3F0900087E043E001F01BEB600302077ED4
:14082E00900087E0FCA3E0FDA3E0FEA3E08C828D838EF02281
:06007800E478FFF6D8FD5C
:200056007906E94400601B7A01900862789075A000E493F2A308B8000205A0D9F4DAF27550
:02007600A0FFE9
:20007E007800E84400600A790175A000E4F309D8FC788FE84400600C7901900001E4F0A3F0
:04009E00D8FCD9FAB7
:0D00490075812012085EE58260030200460A
:1C08420020F71430F6148883A88220F507E6A88375830022E280F7E49322E022C5
:04085E00758200227D
:00000001FF
