:040000000200413287
:01000B0032C2
:0100130032BA
:01001B0032B2
:0100230032AA
:01002B0032A2
:01003300329A
:03003B0002009D23
:03009A0002003E23
:03003E0002020EAD
:10009D00C020C0E0C0F0C082C083C007C006C0054C
:1000AD00C004C003C002C001C000C0D075D0009014
:1000BD00004DE0FEA3E0FF8EEA8FFA90006CE0FCAD
:1000CD00A3E0FD900057ECF0EDA3F0E4A3F0A3F056
:1000DD0090360075F06E7401C007C0061202F0AACA
:1000ED0082AB83D006D00790004DEA2EF0EB3FA3F4
:1000FD00F030D81390006EE0FEA3E0FF90006E7418
:10010D00012EF0E43FA3F090006EE0FEA3E0FF901F
:10011D00004FE0FCA3E0FDC3EE9CEF9D400A1201F1
:10012D00D890006EE4F0A3F0C2D8D0D0D000D001AA
:10013D00D002D003D004D005D006D007D083D08212
:10014D00D0F0D0E0D0203275D80075D90875E9000F
:10015D0075F90075DA4D90006CE0FEA3E0FF90009C
:10016D0057EEF0EFA3F0E4A3F0A3F090360075F096
:10017D006E74011202F0AC82AD838CEA8DFAEC2C18
:10018D00FCED33FD90004DECF0EDA3F0D2AF2275F8
:10019D00DA4D90006CE0FEA3E0FF900057EEF0EF1B
:1001AD00A3F0E4A3F0A3F090360075F06E74011285
:1001BD0002F0AC82AD838CEA8DFAEC2CFCED33FDB4
:1001CD0090004DECF0EDA3F0D2DE2275DA00900038
:1001DD006CE0FEA3E0FF900057EEF0EFA3F0E4A378
:1001ED00F0A3F090360075F06E74011202F0AC823F
:1001FD00AD8390004DECF0EDA3F08CEA8DFAC2DEEC
:10020D002275A230D2AF12015490006C7488F07434
:10021D0013A3F090004F7410F07427A3F020C303C4
:0B022D0012019C2087F71201D880F21C
:0404A400102700001D
:10023800AF83E582900051F0EFA3F0900051E0FE0B
:10024800A3E0C454F0CEC4CE6ECE54F0CE6EC40338
:10025800CEC40354076ECE5407CE6ECEFF7C007D0D
:1002680000C3EC9EED9F50070CBC00F50D80F222F8
:10027800AF83E582900053F0EFA3F0900053E0FEC7
:10028800A3E0FF8E048F051EBEFF011F900053EEF2
:10029800F0EFA3F0EC4D60147C007D00C3EC94E01B
:1002A800ED940350DE0CBC00F30D80F0900053EE8B
:1002B800F0EFA3F022AF83E582900055F0EFA3F0B2
:1002C800900055E0FEA3E0FF7C007D00C3EC9EEDAE
:1002D8009F50147A657B011ABAFF011BEA4B70F72D
:1002E8000CBC00E80D80E522AF82AE83ADF0FC9037
:1002F800005BEFF0EEA3F0EDA3F0ECA3F090005B51
:10030800E0FCA3E0FDA3E0FEA3E0FF30E70FC3E4B9
:100318009CF8E49DF9E49EFAE49FFB80088C008D2C
:10032800018E028F03900057E0FCA3E0FDA3E0FEDE
:10033800A3E0FF33E433F5086013C3E49CF509E454
:100348009DF50AE49EF50BE49FF50C80088C098D59
:100358000A8E0B8F0C90005FE509F0E50AA3F0E523
:100368000BA3F0E50CA3F0888289838AF0EB1203D3
:10037800ACAC82AD83AEF0FF90005BE0A3E0A3E0FD
:10038800A3E033E43365086013C3E49CF8E49DF903
:10039800E49EFAE49F888289838AF0228C828D8386
:1003A8008EF0EF22AF82AE83ADF0FC900063EFF0E9
:1003B800EEA3F0EDA3F0ECA3F0900067E4F0A3F057
:1003C800A3F0A3F090005FE0FCA3E0FDA3E0FEA390
:1003D800E0FF7B20C003900063E0F8A3E0F9A3E00E
:1003E800FAA3E0FB90006B235401F0E828F8E93306
:1003F800F9EA33FAEB33FB900063E8F0E9A3F0EA9B
:10040800A3F0EBA3F0900067E0F8A3E0F9A3E0FA0B
:10041800A3E0FBE828F8E933F9EA33FAEB33FB9079
:100428000067E8F0E9A3F0EAA3F0EBA3F0D00390AB
:10043800006BE06008900067E043E001F09000671F
:10044800E0F50DA3E0F50EA3E0F50FA3E0F510C36A
:10045800E50D9CE50E9DE50F9EE5109F401F900061
:1004680067E50DC39CF0E50E9DA3F0E50F9EA3F094
:10047800E5109FA3F0900063E043E001F01BEB6000
:10048800030203DC900063E0FCA3E0FDA3E0FEA30D
:08049800E08C828D838EF022BE
:06007000E478FFF6D8FD64
:10004E007904E94400601B7A019004A4786C75A0D1
:10005E0000E493F2A308B8000205A0D9F4DAF27511
:02006E00A0FFF1
:100076007800E84400600A790175A000E4F309D825
:10008600FC786BE84400600C7901900001E4F0A371
:04009600D8FCD9FABF
:0D0041007581201204A0E582600302003EDC
:0404A000758200223F
:00000001FF
