:04000000020049327F
:01000B0032C2
:0100130032BA
:01001B0032B2
:0300230002024690
:01002B0032A2
:01003300329A
:03003B000200A51B
:0300430002034C69
:0300A20002004613
:0300460002087F2E
:2000A500C020C0E0C0F0C082C083C007C006C005C004C003C002C001C000C0D075D0009005
:2000C500004DE0FEA3E0FF8EEA8FFA900090E0FCA3E0FD900070ECF0EDA3F0E4A3F0A3F08B
:2000E50090360075F06E7401C007C006120979AA82AB83D006D00790004DEA2EF0EB3FA313
:20010500F030D813900092E0FEA3E0FF90009274012EF0E43FA3F0900092E0FEA3E0FF90D0
:200125000094E0FCA3E0FDC3EE9CEF9D4012120210900092E4F0A3F090009604F0E4A3F061
:20014500C2D8D0D0D000D001D002D003D004D005D006D007D083D082D0F0D0E0D020327518
:20016500D80075D90875E90075F90075DA4D900090E0FEA3E0FF900070EEF0EFA3F0E4A37D
:20018500F0A3F090360075F06E7401120979AC82AD838CEA8DFAEC2CFCED33FD90004DECE0
:2001A500F0EDA3F0D2AF22AF83E582900050F0EFA3F0900050E0FEA3E0FF900094EEF0EF0B
:2001C500A3F0900092E4F0A3F0900096F0A3F075DA4D900090E0FEA3E0FF900070EEF0EF6C
:2001E500A3F0E4A3F0A3F090360075F06E7401120979AC82AD838CEA8DFAEC2CFCED33FD2F
:2002050090004DECF0EDA3F0D2DE2275DA00900090E0FEA3E0FF900070EEF0EFA3F0E4A318
:20022500F0A3F090360075F06E7401120979AC82AD8390004DECF0EDA3F08CEA8DFAC2DE60
:2002450022C0E0C082C083C007C006C0D075D0001099028005900001E4F010980280209081
:200265000002E0FF04FE900002F0EF2404F582E43400F583E599F053060F900002EEF0D0E0
:20028500D0D006D007D083D082D0E032759850758900758BCC758DFFD28E438E409000012B
:2002A500E4F0900002F0900003F022900003E0FF900002E0FEEFB5060122EF04FE9000030B
:2002C500F0EF2404F582E43400F583E0FF53060F900003EEF08F8222E582900052F0900057
:2002E50001E070FA9000017401F0900052E0F59922AFF0AE83E582900053F0EEA3F0EFA329
:20030500F0900053E0FDA3E0FEA3E0FF8D828E838FF0120C2EFC60230DBD00010E900053FF
:20032500EDF0EEA3F0EFA3F08C82C007C006C0051202DDD005D006D00780D1900053EDF0F4
:20034500EEA3F0EFA3F022C0E0C082C083C007C006C0D075D000E59A30E108539AFD9000DA
:2003650014E4F0E59A30E023539AFE900015E0FF04FE900015F0EF2417F582E43400F583A7
:20038500E59BF053060F900015EEF0D0D0D006D007D083D082D0E032759A1075D7CC75D6A7
:2003A500FF438E14900014E4F0900015F0900016F022900016E0FF900015E0FEEFB50602DB
:2003C500801EEF04FE900016F0EF2417F582E43400F583E0FF53060F900016EEF08F8222C4
:2003E50075820022E582900056F0900014E070FA9000147401F0900056E0F59B22AFF0AEE6
:2004050083E582900057F0EEA3F0EFA3F0900057E0FDA3E0FEA3E0FF8D828E838FF0120C8F
:200425002EFC60230DBD00010E900057EDF0EEA3F0EFA3F08C82C007C006C0051203E9D03C
:2004450005D006D00780D1900057EDF0EEA3F0EFA3F022AF83E58290005AF0EFA3F0900026
:200465005AE0FEA3E0FF8EC48FC375C65A75C6A52275C70075C50075C60075C38075C400E0
:2004850022AF83E58290005CF0EFA3F0C2AF75C78175C50390005CE0FEA3E0FF8E828F8365
:2004A50012045800020476AF83E58290005EF0EFA3F075C78175C50190005EE0FEA3E0FF0E
:2004C5008E828F8312045800900060E5C2F0120476900060E0F58222AF83E582900062F090
:2004E500EFA3F075C78175C502900061E0F5C2900062E0FEA3E0FF8E828F83120458000210
:20050500047600007FD67E2D7D0DDFFEDEFCDDFA227F1B7E04DFFEDEFC227F06DFFE229019
:20052500000012048612051690004FE0900061F09000001204DD120516900061E4F0900048
:20054500011204DD120516900090E0FEA3E0FF8E05900069EFF0900061EDF0900010120406
:20056500DD120516900069E0900061F09000110204DD900065E4F0A3F0C2B3120516120519
:2005850016120516D2B3120516120516120516900065E02401F0A3E03400F0900065E0FEA3
:2005A500A3E0FFC3EE9464EF940040CD208724C2B31205161205161205161205161205165A
:2005C500D2B312051612051612051612051612051680D922D2922086FD90004FE0FF9000E0
:2005E50094E0FDA3E0FE90008EEFF0E4A3F08D828E83120C0E1201AC900096E0FEA3E04EB0
:2006050060F6C2921205773085FD3086FA1205160205241203B7AF82900064EFF0BF0D0245
:200625008021BF0A02801CBF4B02801790012FE0FE241AF582E43401F583EFF090012FE0A7
:20064500FF04F0900064E0FFBF0D028008BF0A028003BF4B2290012FE0241AFFE43401FE0B
:20066500900064E0FD8F828E83F090012FE0FF04F09001317401F0229000001204AC9000D4
:20068500011204AC90004FE4F09000101204ACAF82900011C0071204ACAE82D0078E057E0A
:2006A500007C00900090EF5EF0EC5DA3F022900131E070012290008574A6F07400A3F0E41F
:2006C500A3F090011A75F000120B29AD82AE83AFF0ED4E600C900105E0FF60028003120515
:2006E500D990008574ADF07400A3F0E4A3F090011A75F000120B29AD82AE83AFF0ED4E6088
:200705000F900105E0FFBF010790004FE0FF04F090008574B4F07400A3F0E4A3F090011A81
:2007250075F000120B29AD82AE83AFF0ED4E6018900105E0FF6005BF010E800575C760800E
:200745000790004FE0FF14F090008574C9F07400A3F0E4A3F090011A75F000120B29AD8286
:20076500AE83AFF0ED4E601B900105E0FFBF0113900090E0FEA3E0FF90009074052EF0E48B
:200785003FA3F090008574D0F07400A3F0E4A3F090011A75F000120B29AD82AE83AFF0ED79
:2007A5004E6020900105E0FFBF0118900090E0FEA3E0FFEE24FBFEEF34FFFF900090EEF06F
:2007C500EFA3F090008574E5F07400A3F0E4A3F090011A75F000120B29AD82AE83ED4E6065
:2007E50005900105E4F090008574EDF07400A3F0E4A3F090011A75F000120B29AD82AE83EB
:20080500ED4E60069001057401F090008574F5F07400A3F0E4A3F090011A75F000120B29F5
:20082500AD82AE83AFF0ED4E60069001057402F090012FE4F0900131F09000657414F0E480
:20084500A3F0900067F0A3F0900067E0FEA3E0FF900065E0FCA3E0FDC3EE9CEF9D501AEEAD
:20086500241AF582EF3401F583E4F0900067E02401F0A3E03400F080CF2275A230759000FE
:2008850075930075940075B30075B4007592FE75910012016412039D12067D75AF01D2AC85
:1C08A500D2AF30860620C3031205D975820012061890000075F0001206B380E6D7
:200C4E0010270000400600005B424E3A305D005B424E3A315D005B424E3A325D005B424E05
:200C6E003A335D005B424E3A345D005B424E3A355D005B424E3A365D005B424E3A375D00BE
:200C8E005B424E3A385D005B424E3A395D005B424E3A325D0050414745304F4B005041475E
:200CAE0045314F4B0050414745324F4B0050414745334F4B00000000000000000000000043
:200CCE00000000000000000000000000000000000000000000000000000000000000000006
:020CEE00000004
:2008C100AF83E58290006AF0EFA3F090006AE0FEA3E0C454F0CEC4CE6ECE54F0CE6EC403CC
:2008E100CEC40354076ECE5407CE6ECEFF7C007D00C3EC9EED9F50070CBC00F50D80F222E0
:20090100AF83E58290006CF0EFA3F090006CE0FEA3E0FF8E048F051EBEFF011F90006CEE68
:20092100F0EFA3F0EC4D60147C007D00C3EC94E0ED940350DE0CBC00F30D80F090006CEEA7
:20094100F0EFA3F022AF83E58290006EF0EFA3F090006EE0FEA3E0FF7C007D00C3EC9EED68
:180961009F50147A657B011ABAFF011BEA4B70F70CBC00E80D80E52251
:20097900AF82AE83ADF0FC900074EFF0EEA3F0EDA3F0ECA3F0900074E0FCA3E0FDA3E0FE1F
:20099900A3E0FF30E70FC3E49CF8E49DF9E49EFAE49FFB80088C008D018E028F0390007023
:2009B900E0FCA3E0FDA3E0FEA3E0FF33E433F5086013C3E49CF509E49DF50AE49EF50BE4DE
:2009D9009FF50C80088C098D0A8E0B8F0C900078E509F0E50AA3F0E50BA3F0E50CA3F0887F
:2009F9008289838AF0EB120A35AC82AD83AEF0FF900074E0A3E0A3E0A3E033E4336508601B
:1C0A190013C3E49CF8E49DF9E49EFAE49F888289838AF0228C828D838EF0EF229B
:200A3500AF82AE83ADF0FC90007CEFF0EEA3F0EDA3F0ECA3F0900080E4F0A3F0A3F0A3F09E
:200A5500900078E0FCA3E0FDA3E0FEA3E0FF7B20C00390007CE0F8A3E0F9A3E0FAA3E0FB61
:200A7500900084235401F0E828F8E933F9EA33FAEB33FB90007CE8F0E9A3F0EAA3F0EBA32D
:200A9500F0900080E0F8A3E0F9A3E0FAA3E0FBE828F8E933F9EA33FAEB33FB900080E8F0BD
:200AB500E9A3F0EAA3F0EBA3F0D003900084E06008900080E043E001F0900080E0F50DA3E2
:200AD500E0F50EA3E0F50FA3E0F510C3E50D9CE50E9DE50F9EE5109F401F900080E50DC3E4
:200AF5009CF0E50E9DA3F0E50F9EA3F0E5109FA3F090007CE043E001F01BEB6003020A650C
:140B150090007CE0FCA3E0FDA3E0FEA3E08C828D838EF022A2
:06007800E478FFF6D8FD5C
:2000560079A2E94400601B7A01900C4E789075A000E493F2A308B8000205A0D9F4DAF275C4
:02007600A0FFE9
:200B2900AFF0AE83E582900088F0EEA3F0EFA3F0900088E0FDA3E0FEA3E0FF90008BEDF07A
:200B4900EEA3F0EFA3F0900085E0FAA3E0FBA3E0FC8A828B838CF0120C2E70078D828E8324
:200B69008FF0228D828E838FF0120C2E7003020C078D0D8E0E8F0F8A108B118C12850D829C
:200B8900850E83850FF0120C2EF960398510828511838512F0120C2EF8602AC002C003C00A
:200BA90004E4FCFBE9C398F9EC9B49D004D003D0027012050DE4B50D02050E0510E4B510BA
:200BC900BC051180B88510828511838512F0120C2E701890008BE0F510A3E0F511A3E0F576
:200BE900128510828511838512F0220DBD00010E90008BEDF0EEA3F0EFA3F0020B6C900024
:050C09000075F000225F
:200C0E00AA83AB828BF090008EE0A4F8A9F08AF0E0A429F98BF0A3E0A429F583888222220D
:20007E007800E84400600A790175A000E4F309D8FC788FE84400600C7901900001E4F0A3F0
:04009E00D8FCD9FAB7
:0D004900758120120C4AE58260030200461A
:1C0C2E0020F71430F6148883A88220F507E6A88375830022E280F7E49322E022D5
:040C4A00758200228D
:00000001FF
